{
  "_format": "hh-sol-artifact-1",
  "contractName": "ERC20Token",
  "sourceName": "contracts/ERC20Token.sol",
  "abi": [
    {
      "inputs": [
        {
          "internalType": "address",
          "name": "initialOwner",
          "type": "address"
        },
        {
          "internalType": "string",
          "name": "_name",
          "type": "string"
        },
        {
          "internalType": "string",
          "name": "_symbol",
          "type": "string"
        },
        {
          "internalType": "uint256",
          "name": "_totalSupply",
          "type": "uint256"
        },
        {
          "internalType": "uint256",
          "name": "_transferFee",
          "type": "uint256"
        },
        {
          "internalType": "uint256",
          "name": "_burnFee",
          "type": "uint256"
        },
        {
          "internalType": "address",
          "name": "_taxReceiver",
          "type": "address"
        }
      ],
      "stateMutability": "nonpayable",
      "type": "constructor"
    },
    {
      "inputs": [
        {
          "internalType": "address",
          "name": "spender",
          "type": "address"
        },
        {
          "internalType": "uint256",
          "name": "allowance",
          "type": "uint256"
        },
        {
          "internalType": "uint256",
          "name": "needed",
          "type": "uint256"
        }
      ],
      "name": "ERC20InsufficientAllowance",
      "type": "error"
    },
    {
      "inputs": [
        {
          "internalType": "address",
          "name": "sender",
          "type": "address"
        },
        {
          "internalType": "uint256",
          "name": "balance",
          "type": "uint256"
        },
        {
          "internalType": "uint256",
          "name": "needed",
          "type": "uint256"
        }
      ],
      "name": "ERC20InsufficientBalance",
      "type": "error"
    },
    {
      "inputs": [
        {
          "internalType": "address",
          "name": "approver",
          "type": "address"
        }
      ],
      "name": "ERC20InvalidApprover",
      "type": "error"
    },
    {
      "inputs": [
        {
          "internalType": "address",
          "name": "receiver",
          "type": "address"
        }
      ],
      "name": "ERC20InvalidReceiver",
      "type": "error"
    },
    {
      "inputs": [
        {
          "internalType": "address",
          "name": "sender",
          "type": "address"
        }
      ],
      "name": "ERC20InvalidSender",
      "type": "error"
    },
    {
      "inputs": [
        {
          "internalType": "address",
          "name": "spender",
          "type": "address"
        }
      ],
      "name": "ERC20InvalidSpender",
      "type": "error"
    },
    {
      "inputs": [
        {
          "internalType": "address",
          "name": "owner",
          "type": "address"
        }
      ],
      "name": "OwnableInvalidOwner",
      "type": "error"
    },
    {
      "inputs": [
        {
          "internalType": "address",
          "name": "account",
          "type": "address"
        }
      ],
      "name": "OwnableUnauthorizedAccount",
      "type": "error"
    },
    {
      "anonymous": false,
      "inputs": [
        {
          "indexed": true,
          "internalType": "address",
          "name": "owner",
          "type": "address"
        },
        {
          "indexed": true,
          "internalType": "address",
          "name": "spender",
          "type": "address"
        },
        {
          "indexed": false,
          "internalType": "uint256",
          "name": "value",
          "type": "uint256"
        }
      ],
      "name": "Approval",
      "type": "event"
    },
    {
      "anonymous": false,
      "inputs": [
        {
          "indexed": true,
          "internalType": "address",
          "name": "previousOwner",
          "type": "address"
        },
        {
          "indexed": true,
          "internalType": "address",
          "name": "newOwner",
          "type": "address"
        }
      ],
      "name": "OwnershipTransferred",
      "type": "event"
    },
    {
      "anonymous": false,
      "inputs": [
        {
          "indexed": true,
          "internalType": "address",
          "name": "from",
          "type": "address"
        },
        {
          "indexed": true,
          "internalType": "address",
          "name": "to",
          "type": "address"
        },
        {
          "indexed": false,
          "internalType": "uint256",
          "name": "value",
          "type": "uint256"
        }
      ],
      "name": "Transfer",
      "type": "event"
    },
    {
      "anonymous": false,
      "inputs": [
        {
          "indexed": true,
          "internalType": "uint256",
          "name": "oldBurnFee",
          "type": "uint256"
        },
        {
          "indexed": true,
          "internalType": "uint256",
          "name": "newBurnFee",
          "type": "uint256"
        }
      ],
      "name": "setBurnFee",
      "type": "event"
    },
    {
      "anonymous": false,
      "inputs": [
        {
          "indexed": true,
          "internalType": "address",
          "name": "oldAddress",
          "type": "address"
        },
        {
          "indexed": true,
          "internalType": "address",
          "name": "newAddress",
          "type": "address"
        }
      ],
      "name": "setTaxReceiverAddress",
      "type": "event"
    },
    {
      "anonymous": false,
      "inputs": [
        {
          "indexed": true,
          "internalType": "uint256",
          "name": "oldTransferFee",
          "type": "uint256"
        },
        {
          "indexed": true,
          "internalType": "uint256",
          "name": "newTransferFee",
          "type": "uint256"
        }
      ],
      "name": "setTransferFee",
      "type": "event"
    },
    {
      "inputs": [
        {
          "internalType": "address",
          "name": "owner",
          "type": "address"
        },
        {
          "internalType": "address",
          "name": "spender",
          "type": "address"
        }
      ],
      "name": "allowance",
      "outputs": [
        {
          "internalType": "uint256",
          "name": "",
          "type": "uint256"
        }
      ],
      "stateMutability": "view",
      "type": "function"
    },
    {
      "inputs": [
        {
          "internalType": "address",
          "name": "spender",
          "type": "address"
        },
        {
          "internalType": "uint256",
          "name": "value",
          "type": "uint256"
        }
      ],
      "name": "approve",
      "outputs": [
        {
          "internalType": "bool",
          "name": "",
          "type": "bool"
        }
      ],
      "stateMutability": "nonpayable",
      "type": "function"
    },
    {
      "inputs": [
        {
          "internalType": "address",
          "name": "account",
          "type": "address"
        }
      ],
      "name": "balanceOf",
      "outputs": [
        {
          "internalType": "uint256",
          "name": "",
          "type": "uint256"
        }
      ],
      "stateMutability": "view",
      "type": "function"
    },
    {
      "inputs": [],
      "name": "burnFee",
      "outputs": [
        {
          "internalType": "uint256",
          "name": "",
          "type": "uint256"
        }
      ],
      "stateMutability": "view",
      "type": "function"
    },
    {
      "inputs": [],
      "name": "decimals",
      "outputs": [
        {
          "internalType": "uint8",
          "name": "",
          "type": "uint8"
        }
      ],
      "stateMutability": "view",
      "type": "function"
    },
    {
      "inputs": [],
      "name": "name",
      "outputs": [
        {
          "internalType": "string",
          "name": "",
          "type": "string"
        }
      ],
      "stateMutability": "view",
      "type": "function"
    },
    {
      "inputs": [],
      "name": "owner",
      "outputs": [
        {
          "internalType": "address",
          "name": "",
          "type": "address"
        }
      ],
      "stateMutability": "view",
      "type": "function"
    },
    {
      "inputs": [],
      "name": "renounceOwnership",
      "outputs": [],
      "stateMutability": "nonpayable",
      "type": "function"
    },
    {
      "inputs": [],
      "name": "symbol",
      "outputs": [
        {
          "internalType": "string",
          "name": "",
          "type": "string"
        }
      ],
      "stateMutability": "view",
      "type": "function"
    },
    {
      "inputs": [],
      "name": "taxReceiver",
      "outputs": [
        {
          "internalType": "address",
          "name": "",
          "type": "address"
        }
      ],
      "stateMutability": "view",
      "type": "function"
    },
    {
      "inputs": [],
      "name": "totalSupply",
      "outputs": [
        {
          "internalType": "uint256",
          "name": "",
          "type": "uint256"
        }
      ],
      "stateMutability": "view",
      "type": "function"
    },
    {
      "inputs": [
        {
          "internalType": "address",
          "name": "to",
          "type": "address"
        },
        {
          "internalType": "uint256",
          "name": "value",
          "type": "uint256"
        }
      ],
      "name": "transfer",
      "outputs": [
        {
          "internalType": "bool",
          "name": "",
          "type": "bool"
        }
      ],
      "stateMutability": "nonpayable",
      "type": "function"
    },
    {
      "inputs": [],
      "name": "transferFee",
      "outputs": [
        {
          "internalType": "uint256",
          "name": "",
          "type": "uint256"
        }
      ],
      "stateMutability": "view",
      "type": "function"
    },
    {
      "inputs": [
        {
          "internalType": "address",
          "name": "from",
          "type": "address"
        },
        {
          "internalType": "address",
          "name": "to",
          "type": "address"
        },
        {
          "internalType": "uint256",
          "name": "value",
          "type": "uint256"
        }
      ],
      "name": "transferFrom",
      "outputs": [
        {
          "internalType": "bool",
          "name": "",
          "type": "bool"
        }
      ],
      "stateMutability": "nonpayable",
      "type": "function"
    },
    {
      "inputs": [
        {
          "internalType": "address",
          "name": "newOwner",
          "type": "address"
        }
      ],
      "name": "transferOwnership",
      "outputs": [],
      "stateMutability": "nonpayable",
      "type": "function"
    },
    {
      "inputs": [
        {
          "internalType": "uint256",
          "name": "_newBurnFee",
          "type": "uint256"
        }
      ],
      "name": "updateBurnTax",
      "outputs": [],
      "stateMutability": "nonpayable",
      "type": "function"
    },
    {
      "inputs": [
        {
          "internalType": "address",
          "name": "_newTaxReceiver",
          "type": "address"
        }
      ],
      "name": "updateTaxReceiverAddress",
      "outputs": [],
      "stateMutability": "nonpayable",
      "type": "function"
    },
    {
      "inputs": [
        {
          "internalType": "uint256",
          "name": "_newTax",
          "type": "uint256"
        }
      ],
      "name": "updateTransferTax",
      "outputs": [],
      "stateMutability": "nonpayable",
      "type": "function"
    }
  ],
  "bytecode": "0x60806040523480156200001157600080fd5b50604051620013393803806200133983398101604081905262000034916200046f565b8686866003620000458382620005aa565b506004620000548282620005aa565b5050506001600160a01b0381166200008757604051631e4fbdf760e01b8152600060048201526024015b60405180910390fd5b6200009281620000eb565b50620000b887620000a66012600a6200078b565b620000b29087620007a3565b6200013d565b600692909255600755600880546001600160a01b0319166001600160a01b03909216919091179055506200080c92505050565b600580546001600160a01b038381166001600160a01b0319831681179093556040519116919082907f8be0079c531659141344cd1fd0a4f28419497f9722a3daafe3b4186f6b6457e090600090a35050565b6001600160a01b038216620001695760405163ec442f0560e01b8152600060048201526024016200007e565b62000177600083836200017b565b5050565b6005546001600160a01b03848116911614801590620001a857506005546001600160a01b03838116911614155b15620002485760006103e860075483620001c39190620007a3565b620001cf9190620007bd565b905060006103e860065484620001e69190620007a3565b620001f29190620007bd565b6008549091506200020f9086906001600160a01b0316836200025a565b6200021d856000846200025a565b6200024185856200022f8585620007e0565b6200023b9087620007f6565b6200025a565b5050505050565b620002558383836200025a565b505050565b6001600160a01b038316620002895780600260008282546200027d9190620007e0565b90915550620002fd9050565b6001600160a01b03831660009081526020819052604090205481811015620002de5760405163391434e360e21b81526001600160a01b038516600482015260248101829052604481018390526064016200007e565b6001600160a01b03841660009081526020819052604090209082900390555b6001600160a01b0382166200031b576002805482900390556200033a565b6001600160a01b03821660009081526020819052604090208054820190555b816001600160a01b0316836001600160a01b03167fddf252ad1be2c89b69c2b068fc378daa952ba7f163c4a11628f55a4df523b3ef836040516200038091815260200190565b60405180910390a3505050565b80516001600160a01b0381168114620003a557600080fd5b919050565b634e487b7160e01b600052604160045260246000fd5b600082601f830112620003d257600080fd5b81516001600160401b0380821115620003ef57620003ef620003aa565b604051601f8301601f19908116603f011681019082821181831017156200041a576200041a620003aa565b816040528381526020925086838588010111156200043757600080fd5b600091505b838210156200045b57858201830151818301840152908201906200043c565b600093810190920192909252949350505050565b600080600080600080600060e0888a0312156200048b57600080fd5b62000496886200038d565b60208901519097506001600160401b0380821115620004b457600080fd5b620004c28b838c01620003c0565b975060408a0151915080821115620004d957600080fd5b50620004e88a828b01620003c0565b955050606088015193506080880151925060a088015191506200050e60c089016200038d565b905092959891949750929550565b600181811c908216806200053157607f821691505b6020821081036200055257634e487b7160e01b600052602260045260246000fd5b50919050565b601f8211156200025557600081815260208120601f850160051c81016020861015620005815750805b601f850160051c820191505b81811015620005a2578281556001016200058d565b505050505050565b81516001600160401b03811115620005c657620005c6620003aa565b620005de81620005d784546200051c565b8462000558565b602080601f831160018114620006165760008415620005fd5750858301515b600019600386901b1c1916600185901b178555620005a2565b600085815260208120601f198616915b82811015620006475788860151825594840194600190910190840162000626565b5085821015620006665787850151600019600388901b60f8161c191681555b5050505050600190811b01905550565b634e487b7160e01b600052601160045260246000fd5b600181815b80851115620006cd578160001904821115620006b157620006b162000676565b80851615620006bf57918102915b93841c939080029062000691565b509250929050565b600082620006e65750600162000785565b81620006f55750600062000785565b81600181146200070e5760028114620007195762000739565b600191505062000785565b60ff8411156200072d576200072d62000676565b50506001821b62000785565b5060208310610133831016604e8410600b84101617156200075e575081810a62000785565b6200076a83836200068c565b806000190482111562000781576200078162000676565b0290505b92915050565b60006200079c60ff841683620006d5565b9392505050565b808202811582820484141762000785576200078562000676565b600082620007db57634e487b7160e01b600052601260045260246000fd5b500490565b8082018082111562000785576200078562000676565b8181038181111562000785576200078562000676565b610b1d806200081c6000396000f3fe608060405234801561001057600080fd5b50600436106101165760003560e01c806395d89b41116100a2578063dd62ed3e11610071578063dd62ed3e14610232578063e6ef73d61461026b578063e77f35c41461027e578063f2fde38b14610291578063fce589d8146102a457600080fd5b806395d89b41146101fb578063a9059cbb14610203578063acb2ad6f14610216578063d9f5d9f61461021f57600080fd5b8063313ce567116100e9578063313ce567146101815780633a832c2b1461019057806370a08231146101a5578063715018a6146101ce5780638da5cb5b146101d657600080fd5b806306fdde031461011b578063095ea7b31461013957806318160ddd1461015c57806323b872dd1461016e575b600080fd5b6101236102ad565b60405161013091906108fa565b60405180910390f35b61014c610147366004610964565b61033f565b6040519015158152602001610130565b6002545b604051908152602001610130565b61014c61017c36600461098e565b610359565b60405160128152602001610130565b6101a361019e3660046109ca565b61037d565b005b6101606101b33660046109ca565b6001600160a01b031660009081526020819052604090205490565b6101a36103e1565b6005546001600160a01b03165b6040516001600160a01b039091168152602001610130565b6101236103f5565b61014c610211366004610964565b610404565b61016060065481565b6101a361022d3660046109ec565b610412565b610160610240366004610a05565b6001600160a01b03918216600090815260016020908152604080832093909416825291909152205490565b6008546101e3906001600160a01b031681565b6101a361028c3660046109ec565b61044e565b6101a361029f3660046109ca565b61048a565b61016060075481565b6060600380546102bc90610a38565b80601f01602080910402602001604051908101604052809291908181526020018280546102e890610a38565b80156103355780601f1061030a57610100808354040283529160200191610335565b820191906000526020600020905b81548152906001019060200180831161031857829003601f168201915b5050505050905090565b60003361034d8185856104cd565b60019150505b92915050565b6000336103678582856104df565b61037285858561055d565b506001949350505050565b6103856105bc565b6008546040516001600160a01b038084169216907fdac0530f9a4987bc7c8919375eb2ba13678d5400a20acb3ddbb11c5adb41243390600090a3600880546001600160a01b0319166001600160a01b0392909216919091179055565b6103e96105bc565b6103f360006105e9565b565b6060600480546102bc90610a38565b60003361034d81858561055d565b61041a6105bc565b6007546040518291907f0b504da3971e69b4c39e657e8eb80434d69561756e64607984eef6a65670d62890600090a3600755565b6104566105bc565b6006546040518291907f934930a1fad8819bc1482d55c41b072865cd62d8127211c446b095816d8c146990600090a3600655565b6104926105bc565b6001600160a01b0381166104c157604051631e4fbdf760e01b8152600060048201526024015b60405180910390fd5b6104ca816105e9565b50565b6104da838383600161063b565b505050565b6001600160a01b038381166000908152600160209081526040808320938616835292905220546000198114610557578181101561054857604051637dc7a0d960e11b81526001600160a01b038416600482015260248101829052604481018390526064016104b8565b6105578484848403600061063b565b50505050565b6001600160a01b03831661058757604051634b637e8f60e11b8152600060048201526024016104b8565b6001600160a01b0382166105b15760405163ec442f0560e01b8152600060048201526024016104b8565b6104da838383610710565b6005546001600160a01b031633146103f35760405163118cdaa760e01b81523360048201526024016104b8565b600580546001600160a01b038381166001600160a01b0319831681179093556040519116919082907f8be0079c531659141344cd1fd0a4f28419497f9722a3daafe3b4186f6b6457e090600090a35050565b6001600160a01b0384166106655760405163e602df0560e01b8152600060048201526024016104b8565b6001600160a01b03831661068f57604051634a1406b160e11b8152600060048201526024016104b8565b6001600160a01b038085166000908152600160209081526040808320938716835292905220829055801561055757826001600160a01b0316846001600160a01b03167f8c5be1e5ebec7d5bd14f71427d1e84f3dd0314c0f7b2291e5b200ac8c7c3b9258460405161070291815260200190565b60405180910390a350505050565b6005546001600160a01b0384811691161480159061073c57506005546001600160a01b03838116911614155b156107c95760006103e8600754836107549190610a88565b61075e9190610a9f565b905060006103e8600654846107739190610a88565b61077d9190610a9f565b6008549091506107989086906001600160a01b0316836107d0565b6107a4856000846107d0565b6107c285856107b38585610ac1565b6107bd9087610ad4565b6107d0565b5050505050565b6104da8383835b6001600160a01b0383166107fb5780600260008282546107f09190610ac1565b9091555061086d9050565b6001600160a01b0383166000908152602081905260409020548181101561084e5760405163391434e360e21b81526001600160a01b038516600482015260248101829052604481018390526064016104b8565b6001600160a01b03841660009081526020819052604090209082900390555b6001600160a01b038216610889576002805482900390556108a8565b6001600160a01b03821660009081526020819052604090208054820190555b816001600160a01b0316836001600160a01b03167fddf252ad1be2c89b69c2b068fc378daa952ba7f163c4a11628f55a4df523b3ef836040516108ed91815260200190565b60405180910390a3505050565b600060208083528351808285015260005b818110156109275785810183015185820160400152820161090b565b506000604082860101526040601f19601f8301168501019250505092915050565b80356001600160a01b038116811461095f57600080fd5b919050565b6000806040838503121561097757600080fd5b61098083610948565b946020939093013593505050565b6000806000606084860312156109a357600080fd5b6109ac84610948565b92506109ba60208501610948565b9150604084013590509250925092565b6000602082840312156109dc57600080fd5b6109e582610948565b9392505050565b6000602082840312156109fe57600080fd5b5035919050565b60008060408385031215610a1857600080fd5b610a2183610948565b9150610a2f60208401610948565b90509250929050565b600181811c90821680610a4c57607f821691505b602082108103610a6c57634e487b7160e01b600052602260045260246000fd5b50919050565b634e487b7160e01b600052601160045260246000fd5b808202811582820484141761035357610353610a72565b600082610abc57634e487b7160e01b600052601260045260246000fd5b500490565b8082018082111561035357610353610a72565b8181038181111561035357610353610a7256fea2646970667358221220a7d43ce2e19a7755723329bb844bfa8c3cc5a7b5677b1884c866c91851c06ebd64736f6c63430008140033",
  "linkReferences": {},
  "deployedLinkReferences": {}
}